:020000040000FA
:10000000007C0020FD0E00004504000041040000BB
:1000100000000000000000000000000000000000E0
:100020000000000000000000000000003D0400008F
:10003000000000000000000039040000D5030000AB
:1000400010B5064C2378002B07D1054B002B02D0AE
:10005000044800E000BF0123237010BD5C000020B5
:100060000000000014160000044B10B5002B03D054
:100070000349044800E000BF10BDC0460000000076
:100080006000002014160000024B187E4007C00FCD
:100090007047C046001C004210B5FFF7F5FF00286E
:1000A000FBD0074B1A00197E4907FCD5598BC907AD
:1000B00003D4598B890700D45B8B108DC0B210BD5F
:1000C000001C0042F8B5002506000F002C00FFF7C9
:1000D000E3FF114A1378002B1CD1FF21230A0140B2
:1000E0004B4021020D4C5B001C5B53884C40A4B27A
:1000F000002B02D11279002A06D030700136802FF1
:1001000002D1054A013B53800135ADB2AF42DED189
:100110002000F8BD0124FBE778000020CC1300008C
:1001200010B50400FFF7B8FF2070012010BD044B8C
:10013000C0B21A7ED207FCD580B218850120704764
:10014000001C00420023F0B52E4D85B007002B7037
:10015000994211D1013364242B714320FFF7E7FF4B
:10016000294EFFF791FF00280AD1002E06D1013C4D
:10017000002CF2D120000DE06980ECE7013EF0E7B1
:10018000002EF4D00126FFF787FF2B78002B03D039
:100190000020287005B0F0BDFF231840012805D0CD
:1001A00004282CD0002301202B71F3E7022103A89F
:1001B000FFF788FF80213800FFF784FF0190FFF7E9
:1001C0006BFF000284B2FFF767FF019B2418A4B203
:1001D000A34209D102AB1B79B34205D1F34302AA72
:1001E0005279DBB29A4203D01820FFF7A0FFD9E77B
:1001F00006200136FFF79BFFF6B28037C3E70620E3
:10020000F3E7C0467800002000350C000023F0B56D
:10021000394D85B003900C002B70994253D10133B6
:100220002B717F231C4201D080349C43FFF734FFA5
:100230002B78002B03D000232B70FFF72DFFC0B2CB
:10024000432803D071283CD01528EFD10123019316
:100250000120FFF76CFF0198FFF769FF019B8025E4
:10026000D8430027C0B2FFF762FF039B0293224AE4
:100270005388002B02D11679002E06D00299013B3B
:1002800053800B000E78013302933000FFF74FFFCD
:100290003B0A5E40194B7600F65A3F027E4036B26A
:1002A000013DB7B2002DE2D1380AFFF740FFF0B2AE
:1002B000FFF73DFFFFF7F0FE0F4E3378002B04D021
:1002C0003570002016E06980AAE7FF231840062851
:1002D00007D1019B803C0133DBB20193039B803348
:1002E0000393002CB4D10420FFF721FFFFF7D4FEC5
:1002F0000120347105B0F0BD78000020CC1300005F
:1003000070B504000D004618B44201D1280070BD3C
:100310002078FFF70CFF0134F6E7030010B5080062
:10032000110098476422014BDA8010BD780000204C
:10033000094B30B5D96898601B69084A084C9B0086
:10034000814200D830BD4508D5611480157DED0788
:10035000FCD5C018F4E7C0467800002000400041FA
:1003600002A5FFFFF0B5194B0A00197D85B09C6905
:10037000002929D0042A1FD100680F2630275200F7
:1003800004AB9B180B3B9D1A01003140092919D879
:1003900039431970013B00099D42F5D10A200C4BED
:1003A00001A90B808B1898700330D8700432E06874
:1003B000FFF7B3FF05B0F0BD022A01D10088DCE7EA
:1003C0000078DAE73731E4E70100F0E77800002051
:1003D00030780000164A174B117F002904D1197894
:1003E00058780918C9B25970117F0131C9B2117713
:1003F0005978F02902D85978092908D8197849423A
:1004000049B21970197858780918C9B25970117F12
:100410005B78D388002B03D0D388013B9BB2D38079
:10042000D38B002B03D0D38B013B9BB2D38370477C
:10043000780000200000002002BEFEE705BEFEE7B7
:100440000DBEFEE70EBEFEE710230249CA681A423F
:10045000FCD0704700080040024A53785BB2002B82
:10046000FBDB7047000C0040074AFF3053699B0BD1
:100470009B035361022303728279823B134383718E
:10048000037A9B07FCD57047300300201022082315
:10049000F0B58FB000AFBA18D1180B00AC4A31CA12
:1004A00031C331CA31C311CA11C3AA4AAA4C9368D5
:1004B0005B035B0F9B005B582361916889B24B43E0
:1004C000E360138B611CDB05DB0FCB7700236362DA
:1004D00023007A2128331970FA60A36940211B692F
:1004E0009E489847002801D06423E3839B4BE06635
:1004F000236700236367636FE26E9342EDD2236F3D
:100500001B78FF2B51D0232B00D0ACE1237D002B97
:1005100005D0A36902229249D868FFF7FEFE2300A6
:1005200028331B78532B49D1E36E656FAB4218D942
:10053000216FA26F01354E1C266765675B1B9342D6
:100540003AD2E367E36F31001A00606ABB6000F0E3
:10055000DFFEBB683A7AED18F618824B65672667AE
:100560001A70636FA16F013B6367236F013B2367C1
:100570007C4B1B788B4208D2C91AA369606A9B69BD
:100580009847002801D06423E383C04623007A22E1
:1005900028331A700023A367237D002B05D0A3699D
:1005A00001227149D868FFF7B8FE636F01336367B2
:1005B000236F013323679EE7E267C3E7522B10D115
:1005C000631CDB7F002B05D0684B626A9A4201D81E
:1005D000674B6362A369A26F616A5869FFF79DFE6A
:1005E000D4E74F2B03D1A36F626A1370CEE7482B79
:1005F00003D1A36F626A1380C8E7572B03D1636AE4
:10060000A26F1A60C2E7621CD27F6F2B0ED1002A44
:1006100007D0636A574A043B934202D823007833D9
:1006200063620121606AFFF79DFEAFE7682B0ED180
:10063000616A002A09D04F4A0B1F934205D8002354
:100640002000A36778300221EDE70B88F8E7772BCD
:100650000ED1616A002A09D0464A0B1F934205D881
:1006600000232000A36778300421DCE70B68F8E75B
:10067000002A19D1472B17D1A16F72B6EFF3088268
:10068000384B5A600A6882F308884A6810475A68EB
:1006900082F3088862B61B7A002B00D176E7A36943
:1006A00006201B68984771E7542B08D10222533B60
:1006B00023752B49A369D868FFF72FFE66E74E2BF9
:1006C0000BD1237D002B05D1A36902222449D868D0
:1006D000FFF723FE0023237558E7562B1ED1A3698D
:1006E00001222549D868FFF718FEA369184903229B
:1006F0002031D868FFF711FEA36901221F49D8688D
:10070000FFF70BFEA36912490E222431D868FFF7C8
:1007100004FE1B49A36921671722CCE7582B0BD194
:10072000002A06D1A06FFFF703FEA3690322154933
:10073000C1E780208001F6E7592B60D1A36F656A7D
:10074000084E002B22D1F560A36903220E49B2E7BF
:10075000481300000040004178000020A100002064
:10076000F3150000F8000020F6150000FFFFFF1F42
:1007700000500020FBFFFF1FCC150000CE1500002D
:10078000D0150000E8150000EC150000002A06D086
:100790008020A3688001834201D0FFF7C9FD80213A
:1007A000FA68A36F5268F6688A43F9689B084A6042
:1007B000226992087A603E4A9446002BC4D0FA68B7
:1007C0003C491180FA68127DD207FBD53000002227
:1007D000BD607968BD6806008A4201D09A4208D19E
:1007E0006046F9680880F968097DC907FBD59B1A3E
:1007F000E3E7B96820C8013220C1B960E9E75A2BA4
:1008000000D0C3E60025636AA26F2B4899188B427B
:100810001FD1A3690122D8682849FFF77EFD07236D
:100820000F222A40D0B201002D093031092A00DD03
:1008300007311022BA18D154013BF1D21021A3691B
:1008400008227918D868FFF768FDA36903221C49BC
:1008500031E71E782A0A72405200125A2D02554082
:10086000ADB20133D3E71A00303AD1B2092904D826
:10087000A36F1B011343A36797E61A00413A052AA9
:1008800003D8A26F373B1201F4E71A00613A052A38
:1008900003D8A26F573B1201ECE700222C2B03D1A7
:1008A000A36F6362A26780E6210028310B70F9E72D
:1008B00004A5FFFF44A5FFFFCC130000F0150000C6
:1008C000F2150000F8B51A4F06003B7C0800140032
:1008D000002B12D1174B184A18491A645A6C920B04
:1008E00092035A645A6C0A405A64A222402352006E
:1008F000B15C0B43B35401233B744825FF35735D52
:10090000DB07DB0F12D00B4A536C9B049B0C9C4201
:1009100002D9546CA404A40C2200074900F0F8FC8E
:100920000123735500233B742000F8BD1C00FBE736
:10093000F800002030030020F0020020FF3F00F00C
:1009400013B56B46DC1D044B012221005869FFF7EB
:10095000B9FF207816BDC046F8000020F7B500901A
:1009600001201C4D1C005B0116000193EA1853691D
:1009700010325B005B0F03339840B04221D88023D4
:1009800050681B06034353606301ED1829616B69CE
:10099000B1049B0B890C9B030B436B616B690E4984
:1009A00008340B406B61009B64011C190223E37146
:1009B0006279823B13436371E3799B07FCD5300076
:1009C000FEBD064BA701FF183200380000F0A0FC66
:1009D0003900D9E730030020FF3F00F0300200204B
:1009E00010B50C000A000100034801234069FFF71D
:1009F000B5FF200010BDC046F8000020012307B558
:100A0000019004481A0001A94069FFF7A7FF0120DF
:100A10000EBDC046F800002070B50500C0B008004B
:100A200016000C0000F07DFC6B4640000230187090
:100A30006A46032376085370023B5A1EA15C5A0093
:100A4000002901D09E4206DC002369462800FFF7FA
:100A500085FF40B070BD684601338152EDE7F7B5C0
:100A6000056808222900AB8B06001340FF31002BDC
:100A700027D080234020C024AA830932AB724A7059
:100A800088714B71B44BB54D5A68A4052A40224376
:100A90005A605A692A401443B14A5C611A60B14AEB
:100AA000B14C1A615A6814408022920222435A6063
:100AB0005A68920B92035A6000234871337130795F
:100AC000FEBD10200A7A0242F9D0A54A08721778B2
:100AD000A648A74CC7775778A648C7779778678402
:100AE000D778608C3F02074367841779A7845779CA
:100AF000A08C3F020743A78497799C48E784D2796A
:100B0000E78C12021743E78440279A4A4F71D27F3D
:100B1000C07F120202439848824200D1F2E026DCF4
:100B20008020400082421CD00BDC812A04D0822A23
:100B300000D1BEE0802A14D1210023852831022271
:100B40004EE081235B009A4200D12BE100DAF8E00D
:100B5000FF33FF339A4200D1CFE0884B9A4200D155
:100B6000EFE02023FF35AA791343AB71A7E790216B
:100B700009018A426CD017DCD021C9008A4222D0F8
:100B8000882109018A4200D190E0A023DB009A422B
:100B9000E7D12800FFF768FC8023628C5B42134397
:100BA0003268DBB293728AE7754B9A4200D1C8E093
:100BB000D7DD744B9A4200D152E1734B9A42D0D1A7
:100BC000638C7371BDE0638C1B0A012B0CD1122264
:100BD000E38C934201D8E28C92B200236B4934310A
:100BE0002800FFF7BBFE6AE7638C1B0A022B09D1C2
:100BF0004322E38C934201D8E28C92B264490023F1
:100C00000431EDE7638C1B0A032BAAD1638CDBB2A2
:100C1000012B16D0002B05D0022BA2D1E28C5D490E
:100C2000D2B211E059490422463101A800F070FB0C
:100C30000422E38C934201D8E28C92B2002301A9F2
:100C4000CEE7E28C5449D2B22800FFF7E5FE36E742
:100C5000638C28003371FFF707FCA0230322C02117
:100C60005B00EA543C4B3D485A6C890502400A43FC
:100C70005A644622FF32AF54484A30241A64902204
:100C80005200AC545A6B02401143922259638021A6
:100C90005200A954424A1A63B0225200AF545A6F0C
:100CA00010405867B2235B00E95408E7311D012268
:100CB00096E750222385A38C0F20134022002A326E
:100CC0001370A38C0340A384A38C032B15D8137833
:100CD000002B0BD0A38C08335B01EB189B799B0690
:100CE0002100DB0F23852831002328E7A38C08335C
:100CF0005B01EB189B79DB06F2E720238A7913432B
:100D00008B71DCE68022A38C0F21134022002A3253
:100D10001370A38C0B40A384638C002B00D020E7BE
:100D2000A38C002B00D11CE7A38C032B00D918E760
:100D30001378002B09D02022A38C08335B01EB1819
:100D40005A712800FFF790FBB9E6A38C10220833F4
:100D50005B01EB18F4E7C04630030020FFFFFF8F74
:100D6000B002002030020020FF3F00F0F900002018
:100D7000F8000020FA000020020300000103000038
:100D800021200000A12100002122000048130000C2
:100D90000000002004160000F8150000F0020020FA
:100DA000700200208022A38C134022002A3213708C
:100DB0000F22A38C1340A384638C002B00D0D0E6B9
:100DC000A38C002B00D1CCE6A38C032B00D9C8E662
:100DD00023002A331B78002B20D0A38C08335B011F
:100DE000EB189B799B06ACD5A38C113208335B01C1
:100DF000EB181A71A38C08335B01EB18DB795B06E7
:100E00009FD5A38C203208335B01EB18DA71A38CD9
:100E10003E3A08335B01EB181A7192E7A38C083352
:100E20005B01EB189B79DB0600D48AE71022A38CC8
:100E300008335B01EB181A71A38C08335B01EB18C4
:100E4000DB799B0600D47CE7A38C921808335B0106
:100E5000EB18DA71A38C1F3A08335B01EB18DBE760
:100E60000822E38C934201D8E28C92B2014900231C
:100E70004831B5E600000020F8B50B4F06003800F9
:100E800014300D00FFF7EBFD2C00002808D1050001
:100E900008E0220031007869FFF714FD241A3618A3
:100EA000002CF6D12800F8BDF800002070B5084CE1
:100EB0000500200014300E00FFF7D1FD03000020D4
:100EC000834204D0320029006069FFF7FBFC70BD4B
:100ED000F800002010B5084C20001430FFF7BFFDCB
:100EE00003000020834205D048236269FF33D05CB1
:100EF000C007C00F10BDC046F80000200D4A0E48C4
:100F000070B5824206D10D4A0D4B002193420DD19E
:100F100000F01AF80B4C00239442F4D0D118884208
:100F2000F1D9E55804330D60F8E702C39342FCD3CE
:100F3000EEE7C046000000205C000020B003002067
:100F40005C00002018160000F0B5C74A87B013688F
:100F500000AF01331DD0C54BC549D0B2D9620028BE
:100F600017D1C44BC4491B78DB07DB0F0BD00860DB
:100F7000136883F30888FF2311009943BF4B9960DE
:100F80005368184705E00C68BD48844200D051E121
:100F90000B601E210226BB4ABB4C5368BB4D8B43E2
:100FA00033435360A660FFF757FAB94B6360FFF70E
:100FB00053FAAE84FFF748FAB64A13687A619B0E7B
:100FC0003F2B00D1203B0026B34A9B021343B34A78
:100FD000EA62AB62AE84FFF737FAB14BAB84FFF73E
:100FE00033FA0222AB8C1343AB84FFF72DFA3F2276
:100FF000638893433D3A1A43628080226388D2011A
:1010000013436380A660FFF727FAA64B6360FFF7E0
:1010100023FAC021A44AA54B98485360036A0906E5
:101020001B021B0A0B43036207239660136062B620
:101030000F219F4D01362B7833432B709D4B1D782C
:101040008D431D701D78AC46032561460D431D7010
:10105000994D29783143297019780E360E40302188
:101060001E701D7829431970802394490D6A2B4303
:101070000B62934B63808D4BF8603A617B606378C1
:101080005BB2002BFBDB8F4A1300D0698007FCD4D6
:1010900002251068A8431060DA69D207FCD4012247
:1010A000186802431A601A68D207FCD4DA69D207BA
:1010B000FCD4DA699207F9D4834A1A60DA695207D4
:1010C000FCD4C02292025A60804A9A81DA6992075F
:1010D000D20FFBD102201D682843644D18602B00FD
:1010E00030331A702B0031331A702B0032331A70E0
:1010F0002B0033331A702B0034331A70744B1A7070
:101100002023CA6913430122CB6172490B78134330
:101110000B700F21704B18788843187006201E78CA
:10112000304318706D480678324302701A780A40CE
:101130001A70602219780A431A70694B63806378C9
:101140005BB2002BFBDB0123664C22781343237038
:10115000A378DB07FCD41F227B691B68BB605B0B99
:101160001340934200D10523218D5F4813409B011A
:1011700001400B4323857B691B68BB609B0C1340BC
:101180001F2B00D1023B1F210726228D0B408A43D3
:10119000134323857B691B68DB0D3340B34200D1C9
:1011A0000323228D514933400A401B0313437F22FE
:1011B000238523784E48134023700423227800218E
:1011C00013430C2223706062238993432381238974
:1011D0000B3A934323817F3200F092F80022454B73
:1011E0006C61EB6102232A8321780B4323707968B9
:1011F0003B695960C021FB6809061B6A1B021B0A78
:101200000B43F9680B623B699A603B691E600126DB
:101210002C0035342800EB6914309847002800D0A2
:1012200026702378002B0CD0334B294A4C33936122
:10123000FFF72CF9314B0860013B002BFCD10B6010
:1012400096E62378002BE5D1FEF71EFF0028DFD0BD
:10125000FEF722FF2328DBD1274B1D4A6833936119
:1012600001232B72E4E7C04600200000F8000020B4
:101270000420000038040040FC7F002000ED00E066
:101280003581730700400041000C00400008004019
:101290000600010024608000FF01000080BB0A1CE2
:1012A000240500000007030010E000E0E703000051
:1012B000D6440041BB440041D744004100040040F3
:1012C00019400000001C0042040031402AF6FFFFD4
:1012D00078000020584400413C44004159440041FA
:1012E00006400000005000413FF8FFFFFF8FFFFF66
:1012F000300300205F0A00004813000048E80100A6
:1013000003001218934200D1704719700133F9E7B6
:10131000002310B59A4200D110BDCC5CC4540133F7
:10132000F8E70023C25C0133002AFBD1581E704746
:10133000F8B5C046F8BC08BC9E467047F8B5C04634
:10134000F8BC08BC9E467047080000001000000072
:1013500020000000400000008000000000010000AC
:101360000002000000040000322E30005B41726475
:1013700075696E6F3A58595A505D000012010002AB
:10138000020000406623770000020102000104030E
:1013900009040000FD09000041090000D50E00000D
:1013A000E1090000AD0E0000E1090000790E000027
:1013B0002F010000990000008900000001030000D7
:1013C000210100000D020000450100000000211075
:1013D000422063308440A550C660E770088129919F
:1013E0004AA16BB18CC1ADD1CEE1EFF13112100247
:1013F00073325222B5529442F772D66239931883EF
:101400007BB35AA3BDD39CC3FFF3DEE36224433412
:1014100020040114E664C774A44485546AA54BB53E
:1014200028850995EEE5CFF5ACC58DD553367226E6
:1014300011163006D776F6669556B4465BB77AA78E
:1014400019973887DFF7FEE79DD7BCC7C448E55832
:101450008668A7784008611802282338CCC9EDD9DE
:101460008EE9AFF9488969990AA92BB9F55AD44A86
:10147000B77A966A711A500A333A122AFDDBDCCB2E
:10148000BFFB9EEB799B588B3BBB1AABA66C877C52
:10149000E44CC55C222C033C600C411CAEED8FFD7E
:1014A000ECCDCDDD2AAD0BBD688D499D977EB66E26
:1014B000D55EF44E133E322E511E700E9FFFBEEFCE
:1014C000DDDFFCCF1BBF3AAF599F788F8891A98190
:1014D000CAB1EBA10CD12DC14EF16FE18010A1007A
:1014E000C230E3200450254046706760B98398936A
:1014F000FBA3DAB33DC31CD37FE35EF3B1029012CA
:10150000F322D2323542145277625672EAB5CBA535
:10151000A89589856EF54FE52CD50DC5E234C32419
:10152000A01481046674476424540544DBA7FAB709
:101530009987B8975FE77EF71DC73CD7D326F23669
:101540009106B01657667676154634564CD96DC955
:101550000EF92FE9C899E9898AB9ABA944586548B9
:1015600006782768C018E1088238A3287DCB5CDBA9
:101570003FEB1EFBF98BD89BBBAB9ABB754A545A09
:10158000376A167AF10AD01AB32A923A2EFD0FED75
:101590006CDD4DCDAABD8BADE89DC98D267C076C59
:1015A000645C454CA23C832CE01CC10C1FEF3EFF49
:1015B0005DCF7CDF9BAFBABFD98FF89F176E367EA9
:1015C000554E745E932EB23ED10EF01E7600200072
:1015D000204A756E20203120323032342031353AA5
:1015E00031333A33380A0D00580A0D00590A0D00FC
:1015F0005A00230A0D003E0041726475696E6F2027
:101600004C4C43004A6F6C6C7942616467652056AC
:101610003200000000000000011400000902430035
:1016200002010080320904000001020200000524CA
:101630000010010424020005240600010524010015
:1016400001070583030800FF09040100020A0000E6
:10165000000705810240000007050202400000006B
:1016600000C2010000000800010000006900000045
:041670004100000035
:1020000000800020B56700009D6700009D6700000C
:1020100000000000000000000000000000000000C0
:102020000000000000000000000000009D670000AC
:1020300000000000000000009D670000096800002B
:102040009D6700009D6700009D6700009D67000080
:102050009D6700009D6700009D670000A16700006C
:102060009D6700006D3B00009D6700009D670000BC
:102070009D6700009D6700009D6700009D67000050
:102080009D6700009D6700009D6700009D67000040
:10209000000000009D6700009D6700009D67000034
:1020A0009D6700009D6700009D6700009D67000020
:1020B0000000000010B5064C2378002B07D1054B1B
:1020C000002B02D0044800E000BF0123237010BDA4
:1020D000A002002000000000A0C80000044B10B5C2
:1020E000002B03D00349044800E000BF10BDC046E8
:1020F00000000000A4020020A0C8000070B5074D39
:10210000280001F005FA064C200001F001FA280031
:1021100001F070F8200001F06DF870BD1406002089
:1021200014030020F7B50125224E430001933368C4
:10213000214F1D4037D10C004B425941631E9C4139
:102140000139013CE4B2C9B2240409020C43A9B22A
:1021500022003800013501F07DF9182DF7D1002556
:10216000A9B222001548013501F074F9082DF7D104
:10217000380001F03FF8114801F03CF8104B114ACB
:1021800019681368CB1A7C2B03D9336811600133AB
:1021900033603368019A934204DB002301223360E9
:1021A000094B1A70F7BD380001F0B2F9034801F08D
:1021B000AFF9DDE7380600201406002014030020E4
:1021C000300300200803002008000020F8B5052493
:1021D000324E33685C43FF2C28DCFF2300271B04AE
:1021E00025041D4023061B0C1D43E3B21D43B9B259
:1021F0002A002B48013701F02DF9182FF7D10027BD
:10220000B9B22A002748013701F024F9082FF7D185
:10221000234800F0EFFF234800F0ECFFBF239B00B2
:102220009C4235DC336801333360F8BD631EFF3BED
:10223000FE2B19D8FF2300275B001B1B1D041A026D
:1022400015431D43B9B22A001548013701F002F9C0
:10225000182FF7D10025A9B2134A1248013501F011
:10226000F9F8082DF7D1D3E7104BE318FE2BCFD8A0
:1022700000270F4B1B1B1D041A0215431D43B9B247
:102280002A000848013701F0E5F8082FF7D1BFE729
:10229000002301223360074B1A70C6E7380600207E
:1022A0001406002014030020FFFFFF0001FEFFFFC3
:1022B000FD02000008000020F8B5184EFF2730008E
:1022C00001F026F900243F04154D18212B68E01871
:1022D00004F048FF013489B23A00300001F0BAF846
:1022E000032CF1D12B681821E01804F03BFF0134D6
:1022F00089B20022300001F0ADF8182CF2D1300084
:1023000000F078FF01212B68064A01332B60117021
:10231000172B01DD00232B60F8BDC04614060020FA
:102320003806002008000020F7B5424B424D1B68DC
:10233000424C0193019A2B689B1A226893423FD921
:102340003F4B1E78002E15D000233E4E3C4A3000F5
:10235000137001F0DDF8300000F04CFF3A4B1A68C2
:102360003A4B1B68534323602B680193019A314B0E
:102370001A60F7BD364B374A1B78D35C2E2B23D11E
:10238000304FB1B2344A3800013601F063F8182EEC
:10239000F6D1380000F02EFF304B1A682B4B1B682B
:1023A000534323602A4E3378212B33D801333370C3
:1023B0000123234A13702B680193019A1D4B1A6065
:1023C0000122274B1A70D4E72D2B0DD11D4FB1B22E
:1023D000214A3800013601F03DF8182EF6D13800B8
:1023E00000F008FF1F4BD8E7202B08D1154E300016
:1023F00001F08EF8300000F0FDFE1B4BCDE72F2BD7
:10240000D0D1104E300001F083F8300000F0F2FE21
:10241000164BC2E70B4F380001F07AF8380000F095
:10242000E9FE0023064A33701370FA23DB002360B1
:10243000C1E7C046400300203003002038030020DD
:102440003C030020140600207800002088000020B3
:102450003403002007BA0000FFFFFF0080000020C7
:10246000080000207C000020840000208C00002058
:10247000294BF7B51C68200007F0C0FD274D06006A
:102480006621286804F088FD0023864241DD244F40
:10249000235C38000193072401F03AF8019B0122E4
:1024A0002341134219D00C23002663431D4A5432A2
:1024B000D31A0093FF211C4B09041B6838001A042F
:1024C0000A40FF210B4000991A43B300C958013656
:1024D00089B200F0BFFF032EECD1013CDED2380000
:1024E00000F088FE052311490A6853430E4A10681C
:1024F0001B181360FE2B04DD0C6001220C4B1A70BC
:10250000F7BD002BF9DC01230B60002313602B685F
:1025100066332B60F1E7C0466C00002038060020CF
:10252000140600200C000020D4020020040000202B
:10253000080000206B4BF0B519009BB004AA31C90C
:1025400031C231C931C231C931C211C911C20FA959
:102550000A002C3313CB13C213CB13C213CB13C2F9
:1025600003CB03C2604B1F88604B1C88604B1D88E7
:10257000281B05F09FF9061C381B05F09BF9311C40
:1025800004F06EFE041CE81B05F094F9311C04F005
:1025900067FE0021051C201C04F03AFE002800D034
:1025A00085E0FE21201C890504F046FE002801D0AC
:1025B000FE24A4050021281C04F02AFE002800D0D7
:1025C00077E0FE21281C890504F036FE002801D0A2
:1025D000FE25AD054749201C05F01AF8FA218905AA
:1025E00005F016F805F046F942490600281C05F0EA
:1025F0000FF8FA21890505F00BF805F03BF93E4F7D
:102600000390380000F084FF0024082102AAA300F0
:102610005218D558ADB2B4424DDAFF23721E009362
:1026200000217F3B200003F0B3FEFF22334B120258
:102630001B78002B03D1FF22000412040240290062
:102640002D48013400F006FF0B2CDED10024FF26BC
:10265000A3000FAA9D58039BADB29C4236DA5A1EC6
:10266000009680230021200003F092FEFF22244BDD
:1026700012021B78002B01D10200324029001E48B3
:10268000013400F0E7FE0B2CE2D1380000220621D5
:1026900000F0E0FE00221221380000F0DBFE3800DE
:1026A00000F0A8FD0122174B1A701BB0F0BD0024EA
:1026B00080E700258EE7114B1A7853425A41124B9E
:1026C00052421A40FF231B02D218B8E70C4B1A786B
:1026D00053425A410C4B52421A40FF231B02D2185C
:1026E000CCE7C046F8B60000E80200202E03002028
:1026F0000E03002000003042140600200D030020CD
:102700002C030020080000200001FFFFFF23F0B58C
:102710001B048BB003931C4B03AC63601B4B1C4E20
:10272000A360FF231B02E360FF232361194B1821E1
:102730006361194B3068A36104F014FD0B000D00B8
:10274000183300932800072104F00CFD28008B00AB
:102750001821019304F006FD019B104FE25889B245
:10276000380000F077FE009B01359D42EAD1380029
:1027700000F040FD33680133172B02DC33600BB0EF
:10278000F0BD0023FAE7C04600A5FF0000FFFF00F0
:102790003806002082004B00EE82EE001406002076
:1027A000FF23F0B51B048BB00393284B03AC63608D
:1027B000274B1821A360FF231B02E360FF23236143
:1027C000244B6361244BA361244B1E68300004F04A
:1027D000C9FC30000D00182104F0DEFB012300933A
:1027E000184201D0023B00931D4800F091FE0321E6
:1027F000280004F0D1FB0700C31C01931821280016
:1028000004F0B0FC0E1E00DA18363800072104F080
:10281000A9FC8B00B1B2124EE258300000F01AFE53
:10282000009B0137ED18019B9F42E7D1300000F07B
:10283000E1FC0120094A0B49136808700133136059
:102840002F2B01DD002313600BB0F0BD00A5FF00AE
:1028500000FFFF0082004B00EE82EE0038060020F1
:102860001406002008000020F8B505241E4E336829
:102870005C43FF2C1CDCFF2300271B0425041D40A8
:1028800023061B0C1D43E3B21D43B9B22A001748AF
:10289000013700F0DFFD182FF7D1144800F0AAFC33
:1028A000BF239B009C4218DC336801333360F8BDC2
:1028B000631EFF3BFE2BF0D8FF2300275B001B1B92
:1028C0001D041A0215431D43B9B22A0007480137F7
:1028D00000F0C0FD182FF7D1DFE70023012233609D
:1028E000034B1A70E3E7C0463806002014060020A8
:1028F00008000020F7B5154F01901121386804F049
:1029000031FC0F24FF23002561431B040C041C40F1
:102910000B061B0C1C43C9B20C43019BA9B20C4E05
:10292000AB420DDD0B4A3000013500F093FD082D60
:10293000F3D1300000F05EFC3B6801333B60F7BD33
:10294000019B2200AB42EED00022ECE730060020D3
:1029500014030020FFFFFF0070B504000F4D104965
:10296000280003F0B8FD0A222100280003F01FFE12
:102970000C4B0D4918780D4A0D4B002802D00878F1
:10298000002808D01C7000230A480B7004700A4805
:102990000360137070BD1C700123FAE7CC0C00209B
:1029A00085B70000E002002008000020DA020020C5
:1029B000D8020020D90200203806002010B50400FB
:1029C00003F030FF044A1368C31A312B03D9106097
:1029D0002000FFF78FFF10BD2C060020294B2A4A4C
:1029E0001968136810B5CB1A0F2B1BD9274C11602F
:1029F00020780B2809D804F03BFA06262B082D3046
:102A00003336393C3F42FFF779FB214B18780128D8
:102A100008D92378013B012B04D9042800D80138B8
:102A2000FFF7CCFF1B4B1B78002B0BD01A4B1B78EE
:102A3000002B07D0194B1B78002B03D0184B1878AC
:102A4000FFF78AFF10BD01210A20FFF76BFBDCE7CF
:102A50000021F9E7FFF7BAFBD7E7FFF72DFCD4E732
:102A6000FFF762FCD1E7FFF703FDCEE7FFF762FD5A
:102A7000CBE7FFF74BFEC8E7FFF7F6FEC5E7FFF72A
:102A80008FFEC2E730030020DC020020D9020020C4
:102A90000C03002008000020E0020020DA020020E1
:102AA000D8020020144B154A1548196800681368AD
:102AB00010B5CB1A83421ED31248116002F0D3F82E
:102AC000114B80B21880114B1A88114B824201D8E9
:102AD00001221A700F4A1288824202D301210E4A43
:102AE00011701B78002B06D00B4B1B78002B02D0EB
:102AF00001220A4B1A7010BD300300201003002081
:102B000074000020BC020020E80200200E03002018
:102B10000D0300202E0300202C030020340600208B
:102B2000074B084A084819680068136810B5CB1AA3
:102B3000834204D311600548054903F0E1FC10BD50
:102B400030030020E402002070000020CC0C0020A4
:102B50009FB7000070B504000A4D0B49280003F030
:102B6000BAFC21000A22280003F021FD074D084B82
:102B70002800220000211C7000F018FD280000F041
:102B800025FD70BDCC0C002050B700003C06002095
:102B90000C030020F0B5594C85B020780130C0B24C
:102BA000FFF7D8FFFFF7AAFA2078554D0138554CAA
:102BB000072800D99BE0544E04F05AF90426344209
:102BC000536F7D8B5149200003F09AFC5049280037
:102BD00003F0AEFD4F49300003F0AAFD0420FFF7DB
:102BE000BBFE290001A803F093FD01A94A4800F0AB
:102BF000D1FF050001A803F0FAFC002D7CD0474965
:102C0000200003F07DFCFEE74549200003F078FC3E
:102C10004449280003F08CFD4349300003F088FD4F
:102C20000520DCE74149200003F06AFC4049280008
:102C300003F07EFD3F49300003F07AFD0620CEE729
:102C40003D49200003F05CFC3C49280003F070FD86
:102C50003B4F3000390003F06BFD3A4B07201F60FB
:102C6000BDE73949200003F04BFC3849280003F048
:102C70005FFD3749300003F05BFD364801F0F3FF9C
:102C8000354B80B21880354B821C1880344B02388B
:102C90001A80344B18800820A1E73349200003F044
:102CA0002FFC3249280003F043FD3149300003F086
:102CB0003FFD0A2093E72F49200003F021FC2E4915
:102CC000280003F035FD2D49300003F031FD0B20C5
:102CD00085E72B49200003F013FC2A49280003F064
:102CE00027FD2949300003F023FD092077E7274914
:102CF000200003F005FCF8E705B0F0BD0C03002050
:102D0000F8020020CC0C0020EC020020D5B7000017
:102D1000EBB7000013B800004403002071B70000B7
:102D200021B800003AB8000051B800005EB80000B9
:102D300076B8000096B80000A2B80000BBB800004A
:102D4000DAB800006C000020E7B80000FEB8000010
:102D500018B90000BC02002004030020E802002093
:102D60000E0300202E0300201FB9000038B9000018
:102D700053B9000058B9000072B9000095B90000BD
:102D8000A6B90000BCB90000D2B90000E3B9000048
:102D9000064B10B51B78052B02D0062B03D010BDB7
:102DA000FFF780FEFBE7FFF7BBFEF8E70C03002010
:102DB000344BF0B51968344A344B10681B6887B03F
:102DC000C31800248B421FD211606846304903F0BB
:102DD0005DFC304D6946280000F0EBFEA04216D0A5
:102DE0002D4E2E49300003F08BFB2D49300003F0AF
:102DF00072FB280000F0FEFE0A220100300003F002
:102E0000D6FB684603F0F3FB200007B0F0BD254E6B
:102E10003378002B04D030702349684603F068FCF7
:102E20002249684603F0ACFC00240700A042E8D128
:102E30001D49684603F0A4FC1D4B04000120002C32
:102E400004D037701870FFF787FDDAE7194A187059
:102E500017780220FFF780FD3800FFF77DFD13494A
:102E600003A803F055FC280003A900F093FE050019
:102E700003A803F0BCFB002DC3D00F49064803F0A4
:102E80003FFBFEE7300300201006002090000020EA
:102E9000A4C4000044030020CC0C002068B700004C
:102EA00079B7000034060020EC020020F802002070
:102EB000E0020020D902002071B7000010B503F035
:102EC000B1FC094B1860FFF773FF002808D00749D1
:102ED000074803F015FBFFF75DFEFFF77FFD10BD10
:102EE000FFF756FFF9E7C046300300202BBA000079
:102EF000CC0C0020F7B5224801F08EFD214D522365
:102F000001221821280000F08FFA1F4C1F4E2200CA
:102F10003100280003F0A4FF1D4D52230022082198
:102F2000280000F081FA310000262200280003F07A
:102F300097FF184DC6220096174BC721280000F0B6
:102F400021FF2900154801F0F4F8B2239B00EE544C
:102F5000134F144D3900280003F098FB124E220045
:102F60003100280003F07CFF104D3900280003F0E9
:102F70008DFB31002800220003F072FFF7BDC04630
:102F8000BC020020140600200000002031310000A7
:102F90001403002044030020580A0020540300209A
:102FA000A4C40000F8020020EF650000EC0200203D
:102FB000E12170B5494C86B04902200002F07AF850
:102FC000FA20400003F064FC4549200003F098FA21
:102FD0004449200003F094FA434E300000F0FCFB1B
:102FE000FA2003F055FC4149200003F089FA404DD6
:102FF000280000F0ACF82800322100F063FA3D49C7
:10300000200003F07DFA3C4D280000F0A0F82800D5
:103010000A2100F057FA3949200003F071FA384DBF
:1030200019223100280001F0D6FD280001F087FDAB
:10303000642003F02DFC2800402101F0BBFD280096
:10304000012101F0F4FD2F49200003F059FA2E4D23
:10305000280000F08BFE00282AD12C49200003F024
:103060004FFA2B49200003F036FA2A49684603F04C
:103070000DFB694603A803F04BFB03A9280000F0F1
:1030800089FD060003A803F0B2FA002E15D1224DE7
:10309000280000F08FFA002814D12049200003F006
:1030A0002FFAFFF777FD684603F0A1FA06B070BD6E
:1030B0001B49200003F024FAFEE71A49200003F020
:1030C0001FFAFEE71849200003F005FA3100280036
:1030D00000F04CFA154B01381870E2E7CC0C0020D8
:1030E00047BA000060BA0000580A002073BA000016
:1030F000140600208EBA000014030020A9BA0000B4
:10310000BC020020C2BA000044030020D1BA000073
:10311000E8BA0000FBBA00003C0600202BBB000010
:1031200011BB000071B7000052BB00000C0300206F
:1031300010B50400C06806F0C5F90623E05E00285B
:1031400003DBC0B2002103F065FD200010BD10B507
:1031500004000623C05E002807DBC0B2012103F093
:1031600059FDA079002103F0A1FD0123637010BD7A
:1031700070B50500C0680E0006F0A4F92B7CEC7C4D
:10318000E41A631E9C4103347443A4B2AC80200053
:1031900006F08EF9E860002805D02200002106F034
:1031A000D8F96E8070BDA8806880FBE70322F8B56F
:1031B0008B110D118E101640134015400A404674B5
:1031C00082740026FF228A427641C268C47C077C52
:1031D000C37405740670002A0AD0E21B5B1B5142BF
:1031E0004A4159424B419A4202D04188FFF7C0FF01
:1031F000F8BD0000F8B5C3680400002B00D1EFE073
:1032000003F016FB6369984200D260616369C01ADB
:103210002C23FF339842F3D972B60622A35E1822FC
:10322000012053436F4FA688FA185268DB5D904027
:10323000E268DB019619511C15786B4A9F186B4A9E
:103240009B182278002A00D058E0803294463860DB
:10325000C046C046C046C046C046C046C046C0463E
:10326000C046C046C0462A4200D192E0C046C04691
:10327000C046C046C046C046C046C046C046C0461E
:10328000C046C046C046C046C046C046C046C0460E
:10329000C046C046C046C046C046C046C046C046FE
:1032A000C0461860C046C046C046C046C046C0467C
:1032B000C046C046C046C046C046C046C046C046DE
:1032C000C046C046C046C046C046C046C046C046CE
:1032D000C046C046C046C046C046C046C046C046BE
:1032E000C046C046521000D170E0D2B2C046C046BF
:1032F000C046C046C046C046C046A8E780229446A5
:103300003860C046C046C046C046C046C046C046FB
:10331000C0462A4221D0C046C046C046C046C0462C
:10332000C046C046C046C046C046C046C046C0466D
:10333000C046C046C046C046C046C046C0461860EB
:10334000521020D0D2B2C046C046C046C046C04689
:10335000C046C046C046C046D2E71860C046C04618
:10336000C046C046C046C046C046C046C046C0462D
:10337000C046C046C046C046C046C046C046C0461D
:10338000C046C046DCE7B14226D20D786246013124
:10339000B6E71860C046C046C046C046C046C046F4
:1033A000C046C046C046C046C046C046C046C046ED
:1033B000C046C046C046C046C046C046C046C046DD
:1033C000C046C046C046C046C0466BE7B14203D2C5
:1033D0000D78624601313AE762B603F029FA60617E
:1033E000F8BDC04648C200001844004114440041E2
:1033F00070B5437805000C00002B07D00623C05E93
:10340000002803DBC0B2002103F004FC6B78EC80E1
:10341000002B08D0E4B20121200003F0FBFB0021C7
:10342000200003F043FC70BD70B5150000220400BD
:103430000E0042700272C26042611900FFF7B6FED0
:1034400031002000FFF794FE29002000FFF7D0FF95
:10345000200070BD4388F7B58B421AD9037A150C4A
:10346000140A002B16D1E4B2EDB20194D6B2B446E0
:10347000047CC67CC768B44218D1032359437F1823
:103480006A46037C1279FD54437CFA546246837C7D
:10349000FA54F7BDFF26344035405C4316405D4387
:1034A0005E43240A2D0A0194360AE0E789007F185A
:1034B000120E002B02D1D3B2BB55E1E753431B0AD6
:1034C000FAE7000070B54C1C037AE4B205000A006C
:1034D000A3421AD0C6680020013BD9B2814205D070
:1034E000FF2A0ED1094803F057FD80B20023A988B6
:1034F0009AB2914208D9F25C42431212F25401335B
:10350000F5E720020138EEE72C7270BDFFFF0000E6
:1035100010B500218288C06806F01BF810BD0000BD
:1035200070B50F4C0F4EA54404000F4801AA436923
:103530000169651C00F006F9320001A9280005F0B8
:10354000ECFFA35D002B05D18022FF21D2002800D3
:1035500005F0FFFF012323708123DB009D4470BD34
:10356000F8FBFFFF01040000400A002070B503785B
:1035700004000D00002B01D1FFF7D2FF6419607821
:1035800070BD0000037870B505000C001600002B1C
:1035900001D1FFF7C5FF2C196378B34203D0012294
:1035A000014BEA54667070BD0204000010B5FFF7CD
:1035B000E9FF10BD10B503780400002B01D1FFF71F
:1035C000AFFF014BE05C10BD0104000010B5114CD1
:1035D0000378A5440400002B01D1FFF7A1FF0E4B97
:1035E000E35C002B12D001230C4AE118A35401A87C
:1035F00005F093FF0A4C62692169200000F090F801
:10360000636901AA2169200000F03AF88123DB00F8
:103610009D4410BDF8FBFFFF020400000104000000
:10362000400A002010B5054A0549064800F010F888
:103630000022054B05491A705A5410BD01040000C0
:1036400000BC0000400A00203C06002002040000EC
:1036500030B5094D094CAB685B035B0F9B001C59EF
:103660000460AB6801619BB243606343A400836064
:10367000C460426130BDC0460040004100C100004E
:10368000F7B580261A4D01916F6803333E439B08BE
:103690006E60002B2BD0174E2E802E7DF107FCD5AF
:1036A0001E000768991BBF088F4219D9002E17D03A
:1036B000FF2117788C433C430F4957780C403F0259
:1036C0003C439778013E39040C4F2740D478BFB271
:1036D0000F43240601993C4310C101910432E0E7F5
:1036E000074B2B802B7DDB07FCD53300D1E7F7BDE3
:1036F0000040004144A5FFFFFF00FFFFFFFF00FF68
:1037000004A5FFFF044B054A4908D9611A801A7DB8
:10371000D207FCD57047C0460040004102A5FFFF1C
:1037200070B504000D001600E36829002000B342C4
:1037300005D2FFF7E7FFE368ED18F61AF4E7FFF7A5
:10374000E1FF70BD10B510001A0005F0E6FE10BDD7
:103750000020704710B503689C6B0123A04710BD83
:103760008C2300229B00C154103BC3185A609A60FE
:10377000DA6001238375704710B5036801211B6B64
:10378000984710BDF8B505000E0017000024BC4294
:1037900008D02B68315D1B6828009847002801D0AD
:1037A0000134F4E72000F8BDFC30406A70477047F0
:1037B0008E239B00C15070478D239B00C1507047E2
:1037C0000300FC335A6A002A03D01B6AC018007E2B
:1037D000704701204042FBE770B5060018250C49F0
:1037E000006901F0FFFB306901F097FA2B00082116
:1037F000307D084C4343E318595603F083FA0821FF
:10380000707D45436419615603F07CFA70BDC04673
:10381000A086010048C2000070B504000D000069D8
:1038200001F090FA2900206901F0DCFB206901F029
:1038300074FA70BD10B5006901F084FA10BD000083
:10384000F7B50193FA238026002504009B008360CE
:10385000134B760008330F00456029000092036087
:103860003200183005F075FE23002000FC332530AF
:10387000DD6132001D6229005D62FF3005F069FEE6
:1038800088239B00E3185D609D60DD606B461B78BC
:10389000276123756B461B79A57520006375FEBDF6
:1038A00020C1000070B506001825006901F074FB06
:1038B000306901F032FA2B000821307D064C434379
:1038C000E318595603F01EFA0821707D4543641928
:1038D000615603F017FA70BD48C2000010B500220F
:1038E000FFF7E0FF10BD0300802210B5FC33DC6859
:1038F0005200944208D05A6881545A680132D2B2B8
:103900005A60DA680132DA6010BDF7B50400171E9C
:10391000019302D100252800FEBD03000022FC33E4
:10392000DA611A625A620069013201F03DFA061E3C
:10393000F0D0230020691833009301F0C8FA010089
:103940000098FFF7D0FF01252069BD4214D001F097
:103950009CFA00280FD0206901F006FA02212069A4
:1039600001F00CFA206901F0B2FA01000098FFF7AB
:10397000BAFF0135E8E70600206901F0EDF9019B87
:10398000002B06D0002E06D00321206901F0F6F9A5
:10399000C1E7002EBFD1013DBDE7002310B5827DF8
:1039A0009A420CD0882292008218D4688022520059
:1039B000944204D02530FF30FFF795FF0123180013
:1039C00010BD0300FC33DA68002A09D09A68805CD5
:1039D0009A680132D2B29A60DA68013ADA607047C6
:1039E00001204042FBE700228C2370B59B008275CA
:1039F00004000E00C15C006901F0D6F9002806D170
:103A00000321206901F0BAF90225280070BD88233E
:103A10009B00E318DD68002D11D020002530FF3019
:103A20002569FFF7CEFFC1B2280001F0FFF9002899
:103A3000EDD10321206901F0A1F90325E5E7002E6E
:103A4000E3D00321206901F099F9DEE710B51830C1
:103A5000FFF7B7FF10BD70B50400006901F00CFA64
:103A6000002815D0206901F01EFA002811D0206925
:103A700001F07AF90321206901F080F98E239B007F
:103A8000E558002D35D10023FC34E36123626362E5
:103A900070BD206901F011FA002809D0206901F0F9
:103AA00007FA002804D0206901F00CFA0028DED0C3
:103AB000206901F002FA002821D1206901F0EEF915
:103AC0000028E5D0206901F0FDF9002833D08823D3
:103AD0009B00E318DB68FF21002B05D02000253078
:103AE000FF30FFF76EFFC1B2206901F0B7F9A07592
:103AF000CEE7236820001B699847A847C3E72069E1
:103B000001F032F92069032101F038F9206901F050
:103B1000D9F90028BCD0882300229B00E3185A6002
:103B20009A60DA600123A3758D239B00E3589342CA
:103B3000AED09847ACE72300FC335A6A8023206953
:103B40005B009A4206D101F007F90321206901F0D8
:103B500015F99DE701F0BBF9010020001830FFF7CF
:103B6000C2FE206901F000F9EFE7000010B502483D
:103B7000FFF771FF10BDC046580A002010B506239C
:103B8000052202490248FFF75BFE10BD9C0C002095
:103B9000580A002010B504008AB028220968684637
:103BA00006F033FA20006946103000F0F9FC0AB044
:103BB00010BD30B5A5B00D00103010A9040000F004
:103BC000E7FC002807D1200003AA10A900F032FD6D
:103BD000041E02D0200025B030BD1721684669447C
:103BE00002F054FD6946280002F09CFD684602F090
:103BF000FEFCEFE700B595B01030694600F0C8FC58
:103C00000023984201D10EAB1B78180015B000BDFF
:103C100010B500F088FA0021C0B202F0FBFF10BD21
:103C200010B5040000F081FA00280DDD200000F03E
:103C30007CFA0121C0B202F0EDFF200000F075FA1D
:103C40000021C0B203F032F810BD000070B50400CE
:103C50000D0000F06CFA00280ED0052D29D82800A0
:103C600003F006F9030B12192027200000F05FFA79
:103C7000036813499B6A984770BD200000F057FA0B
:103C8000036810499B6AF6E7200000F050FA0368C9
:103C90000D499B6AEFE7200000F049FA03680B49E1
:103CA0009B6AE8E7200000F042FA036808499B6A33
:103CB000E1E7200000F03BFA036806499B6ADAE777
:103CC00010270000A0860100400D0300801A0600A6
:103CD00000350C0040420F0010B500F028FA0368D0
:103CE000DB69984710BD10B5040000F020FA0123ED
:103CF00000280DD02000FFF78BFF2000FFF790FF7A
:103D00002000FFF7E9FF03212000FFF79FFF0023BA
:103D1000180010BDF7B56B460400DF1D0020B2236C
:103D200038709B00E35C0D001600834205D1200033
:103D3000FFF7D9FF002801D00120FEBD3900200087
:103D400000F0D9F93B78022219009143242902D0CE
:103D5000503B012BF0D8B223012220009B00E254FB
:103D600029003200103000F0FBF9E6E7002210B520
:103D70001100FFF7CFFF10BD10B50368C9B21B6873
:103D8000984710BD8360009B01604260C36070472C
:103D90000020814204D002390430012900D90338BF
:103DA00070470000F0B5040087B003910CA90988A2
:103DB00001200291A16800294BD00241E0680192E4
:103DC0001F12DEB200282BD03A4902F088FB3A4D90
:103DD000019A290005A806F0E7F805A9E06802F0B5
:103DE0007EFB3649E06802F07AFB3A00290005A81C
:103DF00006F0DAF805A9E06802F071FB320029004C
:103E000005A806F0D1F805A9E06802F068FB2C4986
:103E1000E06802F064FB0A220299E06802F0C7FB46
:103E20006B46A0681D7903682900DB6A9847390052
:103E3000A068FFF7A1FF3100A068FFF79DFFA06811
:103E4000012103681B6B9847011E04D02000FFF777
:103E50009FFF07B0F0BDA06829000368029ADB6BE2
:103E60009847039D2E00A06803681B6998470028A7
:103E700006D0A06803685B69984730700136F2E7A6
:103E8000E368002BE5D00F49180002F028FBAE4292
:103E90000AD02A78084905A806F086F805A9E0683E
:103EA00002F01DFB0135F2E70749E06802F032FB42
:103EB0000020CEE772C1000077C100007CC1000085
:103EC00096C100007EC10000A4C40000F7B5040044
:103ED000A3680D0017000120002B20D0E068002807
:103EE00002D0144902F016FB6B080026042501934A
:103EF000BE4210D0002D0ED0A06801990368DB6A85
:103F00009847A06803685B6B98470500E068002845
:103F100006D10136ECE7E9B22000FFF739FFFEBD1C
:103F2000054902F0DCFA0A222900E06802F03FFBB2
:103F3000EFE7C04686C100008AC10000F0B504006A
:103F400089B004920EAA1788A2680E000120002AE8
:103F500079D0049A0241E06801921A12DBB203920E
:103F60000293002844D0444902F0B9FA434D019A23
:103F7000290007A806F018F807A9E06802F0AFFAD0
:103F80003F49E06802F0ABFA039A290007A806F05F
:103F90000BF807A9E06802F0A2FA29003500029A9E
:103FA00007A806F001F807A9E06802F098FA354979
:103FB000E06802F094FA0A223900E06802F0F7FAA9
:103FC0003149E06802F08BFABB190593059BAB42BF
:103FD0000AD02A78294907A805F0E6FF07A9E06872
:103FE00002F07DFA0135F1E72849E06802F092FA23
:103FF0006B46A06819790368DB6A98470399A06843
:10400000FFF7BAFE0299A068FFF7B6FEA0683A0073
:10401000036831005B689847A068012103681B6B47
:1040200098470500E068002807D0194902F057FAC0
:104030000A222900E06802F0D0FA002D05D02900FC
:104040002000FFF7A5FE09B0F0BD02F0EBFB070072
:10405000012204992000FFF739FF060002F0E2FB7D
:104060004023FF33C01B984202D8002EF0D1E6E770
:10407000002EE4D00320E6E781C1000077C10000F4
:104080007CC1000096C100007EC10000A4C40000F5
:104090008AC1000007B500931300A622FFF782FE35
:1040A0000EBD0000F0B50F0015001E0085B0039096
:1040B0008023341C5B009E4201D90A4B1C88A4B2A9
:1040C000361B2B0039000094A62203982D19B6B296
:1040D000FFF734FF3F19ADB2002E01D00028E7D022
:1040E00005B0F0BD70C1000007B500931300AE220B
:1040F000FFF758FE0EBD10B501231722FFF7F4FF9E
:1041000010BD37B501AC0D00032314222100FFF7C9
:10411000EBFF002806D1A37862782B702378120277
:1041200013436B803EBD00687047406870478068ED
:10413000704703006422D0331A600200AD23553269
:104140009B00C150FF32203BC25050320433C2505A
:1041500050320433C250583BC2185C33C2507047CF
:1041600010B5040000291AD164236066836620001C
:1041700000F016FB0300002083420ED0A923E122A9
:104180009B00E2544023074A2000A354064AA3544C
:104190000522064BE25400F0B7FA80B210BD41662A
:1041A0008266E4E7A5020000A6020000A702000064
:1041B00013B56B469C1D210000F00CFC2088434287
:1041C000584180B216BD000070B50D004E7809351B
:1041D0000C0032001849280005F090F93834002806
:1041E00002D10123237070BD32001449280005F06C
:1041F00085F90028F5D032001149280005F07EF934
:104200000028EED032000F49280005F077F90C2382
:104210000028E7D032000C49280005F06FF90D2383
:104220000028DFD032000949280005F067F90E2385
:104230000028D7D00023D5E798C10000A3C1000013
:10424000B0C10000BDC10000DEC10000FFC1000020
:10425000080010B509300C004A78054905F04EF900
:1042600038340B23002800D00023237010BDC04633
:1042700022C2000070B54B6B0C005D1C0422094982
:10428000280005F03BF938340423002808D0042224
:104290000549280005F032F90523002800D0022343
:1042A000237070BD8EC1000093C10000F0B50024E2
:1042B0004B6885B003934B6B0E0001930B002500F8
:1042C0004C3302901C70A523029A9B00E318D75828
:1042D0000298019A390000F08AF800280DD13200C6
:1042E0004C321378013313703319DF637B68ED1898
:1042F0007B8E5D19019B5B190193039B9D4202D24A
:104300000434102CDFD105B0F0BD0000F8B50D006D
:104310004E78093507000C0032002349280005F0CB
:10432000EDF8002808D12300072238331A70210045
:104330003800FFF7BBFFF8BD32001C49280005F02C
:10434000DDF8002815D1636B1B78002B04D1210008
:104350003800FFF78FFFEEE75A1E222A06D83834BE
:10436000062B01D12370E6E70323FBE73834002353
:10437000F8E732000E49280005F0C0F827000923AD
:10438000383700280ED032000A49280005F0B6F868
:10439000002806D032000849280005F0AFF80028B0
:1043A000E4D10A233B70C6E717C200001AC200001E
:1043B0001FB800001CC200001FC20000072210B579
:1043C0000B7800241340022B07D0042B08D0012BBC
:1043D00009D1FFF79BFF200010BDFFF7F5FEFAE7BC
:1043E000FFF736FFF7E738310C700120F4E7F0B53E
:1043F0000824177816003C402200531E9A41737817
:1044000085B000930D006B461021039092B23940A5
:10441000188800292FD0002C00D0F4780123023016
:1044200012181B199B1801932B001D3302936B4626
:1044300028001B78E2B209302F706B70002921D060
:10444000B378E71C6B602A72F119009A05F065F8E1
:10445000009B2200FF18F119029805F05EF86B46E8
:104460009B8829006B86019B0398F6186E63FFF703
:10447000A5FF05B0F0BD002C02D0B4790423CEE72F
:104480000C00FBE7F178B378090219433379A71DD3
:104490001B04194373792A721B060B431BBA6B600A
:1044A000D2E7F0B5082417780D003C4021004B1EE0
:1044B00099411600CBB285B003909C4698B27378B0
:1044C000102200936B463A401988002A31D0002C04
:1044D00000D0F4780123023141181B195B18290020
:1044E00028001D3101930930E3B202912F70002A98
:1044F00026D06A466746127803376A70B2782B7204
:104500006A60F119009A05F008F8009B2200FF1874
:10451000F119029805F001F86B469B8829006B861B
:10452000019B0398F6186E63FFF748FF002005B063
:10453000F0BD002C02D0B4790423CCE71400FBE7D3
:104540006A461278A71D6A70F178B27809021143A1
:1045500032791204114372792B7212060A4312BA8D
:104560006A60CEE7F8B51F0004000E001500FFF7E3
:104570001FFE03000120002B09D13A002900200072
:1045800000F084F92A0031002000FFF78AFFF8BD0F
:1045900010B5836E426E9BB2FFF7E4FF10BD0000C2
:1045A00070B5040008000D0005F028FDD123626EEF
:1045B00003301370FF2804D8626EC13B11780B439F
:1045C00013700123626E5370636EC2B2FF282BD941
:1045D0000626010E9970616E030CCB70636E000AA3
:1045E0001871636E5A715423626E114993550222F9
:1045F000636EB0189B195A70636E0436181804F075
:104600008CFF280005F0FAFC636E2900020098195F
:1046100004F083FF280005F0F1FC801981B2626E7E
:10462000200000F0D0F970BD9A700326DBE7C04689
:1046300042C200000B00F7B538331B78150001208B
:10464000092B29D14F6B02303B781A07120F092A28
:1046500022D84E68013EB61A272E1DD8DB092B70D2
:1046600000243A787B1C12071900681C120F019372
:1046700004F053FF28003B780B301B071B0FEB188F
:104680005C703978019B0907090F5918320004F052
:1046900044FF2000AD19EC72FEBD70B5AD250C00D5
:1046A000AD000423060000224059FFF7FBFCA3786D
:1046B000002B08D10133002808D10333211D1A0033
:1046C0007059FFF7EFFC431E984183B2180070BD8C
:1046D00070B5AD250C00AD00042306000022405942
:1046E000FFF7D8FCA378002B08D10133002808D1AC
:1046F0000333211D1A007059FFF7CCFC431E98416B
:1047000083B2180070BD0000A923F0B59B00C35C04
:1047100085B002A90B701E4B0400C35C4B701D4B8F
:10472000C25C1D4B8A70C35C0420CB70AC239B0021
:10473000E050002A06D1194AA25A1012CA71082262
:104740008871E2502000FFF7A8FF00281ED16B46B9
:10475000AC27DD1D0323AD26BF002B70E359B60047
:104760009AB229000123A059FFF79CFC0300012005
:10477000002B0BD1E2592B701218030092B22900C2
:10478000A059FFF78FFC431E984180B205B0F0BDE1
:10479000A5020000A6020000A7020000AA02000075
:1047A000AB230022F0B587B09B0004AEC2543100A9
:1047B0000400FFF78DFF051E06D131780B001F3373
:1047C000DBB2012B03D90525280007B0F0BD7278B4
:1047D0000323100098434028F5D1B378274F284889
:1047E000002B30D1E555B779F3793F023B43235293
:1047F0000093AC2308209B00E050A9239B00E154C8
:10480000204BE254F178AC261F4A0193A154B60024
:10481000AD20A35903AF80009AB239000423205879
:10482000FFF738FC0028CED1A359009A9342CAD290
:104830003A78032A14D1AB2379789B00002909D157
:10484000023AE254C0E7E3550093AC2325529B00A3
:104850000420D1E70199615C1142F2D10222F0E714
:10486000FD2A06D17A78FF2A00D17A88D318A3517D
:10487000CEE7FE2AA7D00133F9E7C046A602000022
:10488000AA020000A5020000A7020000F7B504007C
:104890000E001700FFF784FF00282FD1AC23AD20B6
:1048A0009B00E25801AD800092B2042329002058F9
:1048B000FFF7F0FB80B2002820D16878FF281ED1D6
:1048C00004216B88180A1B02184380B2874219D34F
:1048D000AB239B00E35C012B16D000280ED0AC2349
:1048E0009B00E2580300AD205218800092B23100C4
:1048F0002058FFF7CFFB431E984180B2FEBD80B227
:104900000221E3E70320F9E71800F7E7F0B5150007
:10491000FE2287B0019302ABDA71AD2305AC9B0098
:1049200006000F00C0582100FFF7EBFB002803D062
:104930000124200007B0F0BD2178638801310133E4
:1049400059430220FE2D00D90018AC239B00F358D8
:104950000224DB435B181B1A9D42EAD83000FFF7A4
:104960001FFF0028E4D104AB1F70FE2D29D9FF22C0
:104970005A706ABA5A802419AC23AD276A469B0044
:10498000F358BF0000931288A3B204A9F059FFF7AF
:1049900089FB0028CCD1009B0199E418A2B22B001E
:1049A000F059FFF77FFB0028C2D12C1902A9A2B24F
:1049B00001230731F059FFF775FB441EA04184B273
:1049C000B7E75D70D8E710B513000A000321FFF7C1
:1049D0009DFF10BDF7B507000D00FFF7E1FE041EB7
:1049E00011D1AC23AD209B00FA5801AE800092B2E9
:1049F000042331003858FFF74DFB00280AD17378A3
:104A0000FF2B02D02B802000FEBD73881A0A1B02E8
:104A10001343F7E70124F6E7034BC3600023037455
:104A2000013343747047C04600093D00F7B50400E8
:104A300080681F00CB180D0016000193002822D0BB
:104A40000368E168DB69226998476079002102F018
:104A50002DF9C021A068314303689B689847019BEA
:104A60009D4207D0A068002103689B689847287082
:104A70000135F4E76079012102F018F9A0680368B4
:104A80001B6A9847F7BD606921780368DB6A98471D
:104A900080216069314303681B6898476069036837
:104AA0005B6B98476069217803683A00DB6B984735
:104AB000606903681B6998470028E3D0019B9D4209
:104AC000E0D0606903685B69984728700135EFE7BB
:104AD00070B5040080680E00150000281BD0036824
:104AE0002269DB69E16898476079002102F0DEF80D
:104AF000A068310003689B689847A0682900036894
:104B00009B6898476079012102F0D0F8A06803689B
:104B10001B6A984770BD606921780368DB6A984713
:104B20006069310003681B68984760692900036861
:104B30001B689847606903685B6B9847EAE710B5A4
:104B4000C0221F21FFF7C4FF642001F0A1FE10BDA9
:104B500013B56B46DC1D0A0001232100FFF766FF39
:104B6000207816BD70B50D0023210400FFF7F0FF7B
:104B7000CF2202402A4320002321FFF7A9FF64200F
:104B800001F086FE102D0ED002D8002D0DD070BD84
:104B9000202D05D0302DFAD1A023DB006380F6E76D
:104BA000F8231B01FAE7024BF8E7FA239B01F5E72C
:104BB000721C000070B50D0020210400FFF7C8FF33
:104BC0000F2202402A4320212000FFF781FF6420AA
:104BD00001F05EFE70BD70B541610B680400DB69D9
:104BE00008001500984700232570A36080221F212C
:104BF0002000FFF76DFF642001F04AFE072220210C
:104C00002000FFF765FF642001F042FE802223218F
:104C10002000FFF75DFF642001F03AFE2000302104
:104C2000FFF7A0FF70212000FFF7C4FF70BD70B533
:104C30000D0023210400FFF78BFF082102008A43A7
:104C4000D2B2002D01D00143CAB223212000FFF7C8
:104C50003FFF70BD13B501AC0A0002232100FFF72E
:104C6000E5FE208816BD10B50C21FFF7F3FF02B258
:104C7000D017C0B280180012193010BD034B044A7F
:104C80001A6000221A7101325A717047940C002088
:104C900000093D0010B50C490C4800F02DF80C49F6
:104CA0000C4800F029F80C490C4800F025F80C4994
:104CB0000C4800F021F80C490C4800F01DF80C4994
:104CC0000C4800F019F810BD000800429C0C0020B0
:104CD000000C0042A40C002000100042AC0C00208C
:104CE00000140042B40C002000180042BC0C00204C
:104CF000001C0042C40C00200023037101607047B7
:104D00000123026811680B43136003681A68D20715
:104D1000FCD4DA69D207F9D470470223026811681B
:104D20000B4313600368DA699207FCD430215A8B75
:104D30008A43110010220A435A830268D3695B0731
:104D4000FCD470470221026813688B431360026829
:104D5000D3699B07FCD4704780230268DB0211688B
:104D600051680B4353607047036803491A685A68D7
:104D70000A405A607047C046FFFFFBFF032230B570
:104D8000036811401C68074D5A6809042A40E4066C
:104D90001143640F5960052C03D10268D3695B0786
:104DA000FCD430BDFFFFFCFF70B5056804006B8BC1
:104DB0009B069B0F022B0DD06B8B00209B069B0F3D
:104DC000032B32D06B8B9B0704D56B8B9B069B0F01
:104DD000012B2AD16B6A49001143DB0AC9B2DB02FD
:104DE0000B436B622368002A13D11A7ED207FCD5CD
:104DF0005B8B9B069B0F022B04D0490800222000EE
:104E0000FFF7D2FF2368588B4007C30F012058409B
:104E10000BE0187E8007C00FF4D11A7ED207F8D5B8
:104E2000C022596892020A435A6070BD0368283351
:104E300019700268107EC007C30F508B002B06D17B
:104E4000C007C00F08D1538B9B07F3D570474007AD
:104E5000C30F01205840F9E71800F7E7036828332B
:104E60001970036800201A7E520704D5588B01235D
:104E70004007C00F5840704703681868C006400FCD
:104E8000043843425841C0B270470368588B8006CB
:104E9000800F023843425841C0B270470368187E01
:104EA0004007C00F70470368187EC007C00F7047E7
:104EB0000368588BC006C00F70470368187E8007D0
:104EC000C00F70470368588B0007C00F7047036816
:104ED0001A68D206520F052A05D11A7E920702D40B
:104EE0001A7ED207F9D528331878C0B2704700006F
:104EF0000368214A30B593422FD0204A93422FD0E5
:104F00001F4A93422FD01F4A93422FD01E4A9342EA
:104F10002FD01E4A93421FD10E23192201210325AF
:104F200099401B48C024016099082B40AB40FC35D8
:104F30009D4089000918A4000859A843C0259D4038
:104F40002B0003430B518023DB011A43114B5A8082
:104F50005A7852B2002AFBDB30BD09231422DDE768
:104F60000A231522DAE70B231622D7E70C23172290
:104F7000D4E70D231822D1E700080042000C0042BC
:104F8000001000420014004200180042001C0042C1
:104F900000E100E0000C004070B504000D001600B8
:104FA000FFF7A6FF2000FFF7ABFE1C2221686D0073
:104FB0000B6893431A0010231343FF220B602368EE
:104FC00015405D62002E04D001232268516A0B4314
:104FD00053620723226893752268D3695B07FCD468
:104FE00070BD0000F8B504000F00FFF781FF20003E
:104FF000FFF786FE1422236879001A600C4B25689F
:105000001E68300001F03EFF0A490400300001F044
:1050100039FF7D23FA215843C90001F033FFFF23F4
:10502000241AE868053C1C4098430443EC60F8BD32
:105030009C00002040420F000020704770B50F26F2
:10504000CB1D013902003240D5B22C0000093034AA
:10505000092A00DD07341C70013B8B42F2D170BD80
:1050600010B50C000B4B1868FFF7E8FF21000A4B46
:1050700008311868FFF7E2FF2100084B103118686B
:10508000FFF7DCFF2100064B18311868FFF7D6FF49
:10509000202010BD0CA0800040A0800044A0800013
:1050A00048A0800008B4024B9C46103808BC6047FA
:1050B00061500000704770473F20704713B56B4642
:1050C0000268D9710733546819000122A04716BD40
:1050D00070B50A260B7892B06E44023305000B704F
:1050E0003C220021300004F034FA394801AC06902B
:1050F000384824210790062020776846364AA17454
:105100002281364A364BA281FD3AFF3A8018C17798
:10511000684623390630C17768460730C17702A850
:10512000C1770720F277032608316944C87703A9BD
:10513000CE7710212B366E443170092621851F3120
:1051400069440E700CA9053E0E70332123800223A2
:1051500069440B7006360DA90E7022493536A186BA
:105160003B216E44307010A86274E27702703D32C9
:1051700069446A440B70137040210022E37023716C
:105180006371A37341336B44218719705A702B7D6F
:10519000C039A370A37263770133DBB2A3776A7D52
:1051A0000B200D0068441543C57731206844037017
:1051B0003A23501C6B441870412302320A436B445B
:1051C0001A7021004222084800F004FD12B070BDA0
:1051D0001001042402060524090400000102000055
:1051E000080B000007050000300D002008B4024B3A
:1051F0009C46103808BC6047D1500000F8B5027DCD
:105200000B7904000D0000279A420CD10B784E78E0
:10521000A12B0AD1212E06D10100072234311C48CE
:1052200000F0D8FC01373800F8BD212BFBD1202E2F
:1052300023D1010007223431154800F00DFC9623DC
:10524000626BDB009A421FD13B342378DB071BD40F
:10525000FA2001F0B7FD00210D4800F0C3FD012741
:10526000232EE0D1EB78AA781B021343094A0021D0
:105270000748136000F0B6FDD5E7222EEFD10300FA
:105280008A783B331A70DAE701F0A6FDE3E7C046FF
:10529000300D00209400002008B4024B9C461038CA
:1052A00008BC6047FD51000010B5343008220021D1
:1052B00004F04FF910BD000010B5417D006A0131C6
:1052C00000F002FB034B1B6801335A1E9341181870
:1052D00010BDC0469800002010B5417D006A023123
:1052E00000F008FB10BD10B5417D006A023100F0EE
:1052F000CFFA10BD70B50D00417D040013000231DE
:105300002A00006A00F0BCFB002801D10123636081
:1053100070BD000010B5054C23685A1C04D1036809
:105320005B69984703002060180010BD98000020BA
:10533000074A0300106810B5411C03D001235B42EB
:10534000136010BD597D186A013100F049FBF8E780
:105350009800002070B5050001F064FAF423FF33D3
:105360000024984207D93B352C780A20631E9C41C3
:10537000E4B201F08DFA200070BD00207047704744
:1053800070470000FA239B0010B58360114B002288
:10539000C3820300283383610F4B04004260C26163
:1053A0001800503323610830631D21622060DA77D2
:1053B0000A4A2F3303CA03C38323A362813BE362F8
:1053C0008033236301F060F82100103101F02EF8E2
:1053D000200010BD03020000E8C30000E0C300008D
:1053E000022110B5094B1A68437D5B01D318FF33C6
:1053F0009C7A21439972437D0133DBB25B01D31860
:105400000122FF33997A0A439A7210BDE8110020F5
:1054100010B502490248FFF7B5FF10BD300D00205E
:10542000CC0C0020704710B5040001F07BFA20007E
:1054300010BD0000F0B5822919D1C3B2294D5A011F
:10544000AA189169284C80010C40C021890521438C
:1054500091612649083340187021506128685B012A
:105460001A5C8A43110030220A431A54F0BD002905
:10547000FCD1C026C1B21B4C4B01E3189A681A4DEF
:10548000B6052A4032439A60194A800182185A6050
:105490000A000727246808325201115DB9430F0042
:1054A0000121394311559F6910493D4040182E4351
:1054B0009E6158617020115D8143080010210143F5
:1054C000115599680B48A2180840802149030143EF
:1054D00099609968890B89039960402311790B437E
:1054E0001371C3E7E8110020FFFFFF8F5C0D002060
:1054F0001C0F0020FF3F00F0EFF310830360012337
:10550000436072B670470368002B02D162B6BFF3E6
:105510006F8F704773B5836D0400002B1BD106009D
:10552000A83635786846FFF7E7FF019BEDB2013BEF
:1055300002D33578EDB2FAE768460193FFF7E3FF4F
:10554000002D01D1002076BD2300A4331868A034BB
:105550002368C01AF7E76846FFF7CEFF2200002550
:10556000019BF432013B02D31578EDB2FAE76846AD
:105570000193FFF7C8FF002DE4D02300F033186833
:10558000EC34E5E710B5436D4468DBB25A01A2186C
:10559000916809480833084080214903014391601C
:1055A00091685B01890B890391602268D3184022BE
:1055B00019790A431A7110BDFF3F00F0F7B5436D2A
:1055C0004268DBB219000400083110684901411833
:1055D000C979C90711D55B01D21893689B049B0C4C
:1055E0000CD12000FFF7CEFF63681A68636DDBB251
:1055F00008335B01D3187F22DA71F7BDE16D002912
:1056000023D12100A4310B6023000125AC33E565D3
:1056100068465360FFF770FF260020002100019BC1
:10562000A836013BF430F5315A1C33D0357002787E
:105630005F1ED2B20A700A78002A04D120000193BA
:10564000FFF7A0FFE8E73B00EEE72100F0310B6039
:105650000023E3652300603353606846FFF74CFF87
:105660000125260020002100019BF436013BA830D3
:10567000F5315A1C0ED0357002785F1ED2B20A7016
:105680000A78002A04D120000193FFF77BFFE8E7A6
:105690003B00EEE768460193FFF735FFA4E737B517
:1056A0006B46DC1D00230D00237000F0EDFE210091
:1056B00000F079FE2B681818286020783EBD0000A5
:1056C0000078002810D00121084B1B681A898A43F2
:1056D0001A810822198B0A431A830422198B0A4360
:1056E0001A830022024B1A607047C046E81100205E
:1056F000E011002010B50F4A93699B0B9B03936147
:1057000013680222FF331A729879823A02439A711F
:105710001A7A9207FCD57F24074A2140937A080021
:10572000A3431900802301439172917A5B420B439A
:10573000937210BDE81100200050004110B50C001C
:1057400000F0A2FE210000F061FE002804D1034A0F
:1057500093699B0B9B03936110BDC046E811002029
:10576000F8B50D00832A19D1CBB23B4C5A01A218CF
:1057700091693A48AD010840C02189050143916112
:10578000374920686D187021083355615B011A5C38
:105790008A43110040220A431A54F8BD022A55D107
:1057A000304A8B009858002802D003685B699847FC
:1057B000F82001F0B3F80400274E2B4B466003603D
:1057C00040220021083003F0C4FE22000023A03252
:1057D000A3646565E3642365A365E3655360D364EF
:1057E0001372136013654C3213725372FF222B0035
:1057F0001340590171188868184F08330740C020BA
:10580000800538438860306807265B01195CAD006D
:10581000B1430E000321314319542300616D6068C8
:1058200011404901411860334B60616D63680A4063
:105830001B6852019B180122FF33997A20000A430A
:105840009A72FFF79FFE074B5C51A6E711002800F4
:10585000FFF7F0FDA1E7C046E8110020FFFFFF8F32
:105860005C0D0020340D002050C4000070B5050010
:105870000124064BA200D258002A06D0210028009D
:105880000134FFF76DFF0A2CF3D170BD080D002025
:105890000B4BCAB20B488901C9185301C31859618F
:1058A00099690832890B89039961036852019A1832
:1058B0000223D3715179823B0B4353717047C04629
:1058C0005C0D0020E8110020084B8A00D05810B56C
:1058D000002803D003689B68984710BDC9B2044BE9
:1058E0004901591888688004800CF6E7340D0020BF
:1058F000E811002010B50C00FFF7E6FF00280CD0DF
:10590000064BE4B21B68083464011C1980236279D9
:105910005B42134363710223E37110BDE811002061
:10592000F0B51C002A4B85B01B6807000D000292E1
:10593000002B4AD0274B8A00D058002808D0036893
:1059400022005B68029998470400200005B0F0BD72
:105950003800FFF7B9FF844204D929003800FFF767
:10596000B3FF04000121EBB21B4E03935B010193D3
:10597000F21893689B0B9B039360019A336802981B
:105980009B18FF335A7A0A435A72144BA901C9185B
:10599000220003F0C2FD002CD7D029003800FFF709
:1059A00093FF0028D1D14021039B326808335B016B
:1059B000D3181879014319710121D971019BD318AA
:1059C000FF339A7A0A439A72BFE701246442BCE724
:1059D000E0110020340D0020E81100201C0F0020F1
:1059E00013B56B46DC1D22000123FFF799FF012848
:1059F00001D1207816BD01204042FBE770B5CBB243
:105A0000124A13485C018901891802195160916892
:105A1000104D08330D4080214903294340259160F2
:105A20009168890B8903916001685A018A18167977
:105A30003543157195796D06FCD55B01C918CB7995
:105A4000DB07FCD500198068C0B270BD1C0F0020B8
:105A5000E8110020FF3F00F070B50D000021140098
:105A6000FFF7CCFFA04200D9200000230349A34246
:105A700003D0CA5CEA540133F9E770BD1C0F002063
:105A8000F0B51E003A4B85B01B680F000192002B49
:105A900035D08023DB019E4231D80025354B8A0169
:105AA000D3180293002E2CD0334B1B680393FF2393
:105AB0003B401C0000930834039B64011C19A3792C
:105AC000DB0921D02D4B2E49186801F0DBF92D4B55
:105AD0001721584301F0D6F92B4BE279920713D4E2
:105AE000DA5D002A01D10138F7D20122DA55009B94
:105AF0005A01214B9B189A69920B92039A610125D6
:105B00006D42280005B0F0BD00221F4B3400DA556D
:105B10003F2E09D9009B40245A01174B9B18802225
:105B2000996912060A439A6122000199029803F0CA
:105B3000F4FC009BA1045A010F4B890C9B18029A9C
:105B40002D195A619A69361B920B92030A439A6186
:105B5000009B039A08335B01D3180222DA7159794A
:105B6000823A0A435A71019B1B1901939AE7C04676
:105B7000E01100205C0D0020E81100209C000020B6
:105B800040420F0070110100510D002070B50D0052
:105B90001C000D4BAE01F61811003000220003F07E
:105BA000BCFCEDB209496D014D196E61AB69084A43
:105BB00020001340AB61AB69A2049B0B920C9B03CA
:105BC0001343AB6170BDC0465C0D0020E81100209E
:105BD000FF3F00F0F7B5104B01901B780F00150048
:105BE000002B0CD10D4B16001C78002C09D00C4E4C
:105BF0000C4834882018641903F08FFC3480280086
:105C0000FEBD002EFBD03A19330000210198FFF7AA
:105C1000BDFF2418361AF4E7DC100020DD11002047
:105C2000DE110020DD100020F8B50F001600002462
:105C3000012A26D9100003F03BFC0500380004F0CF
:105C4000DDF9032302220130400028706B70964278
:105C50000DD9397800290AD0531CDBB20137A95479
:105C60009E4203D00232EC54D2B2F0E73200290057
:105C70000548FFF7AFFF441EA041C4B2280003F05F
:105C800021FC2000F8BDC046300D0020F0B50024F6
:105C9000012685B0184B0F0069461E700500009460
:105CA000FFF7FDFC154B01A90B806A3BFF3BCB7155
:105CB0005A330B72009B8C7109334B800E4B4E7123
:105CC00008711C703A00092F0FD00D4F09223E7049
:105CD0000C4E280000943480FFF77CFF69462800B2
:105CE000FFF7DDFC328808493C702800FFF772FF9F
:105CF000012005B0F0BDC046DC1000200902000004
:105D0000DD110020DE110020DD10002070B5CE78FE
:105D100092B005000C00022E0BD18B79C9792C486A
:105D200009021943FFF7B2FF411E8841C0B212B009
:105D300070BD00F0A9FB210000F049FB002803D052
:105D4000C117081AC00FF2E7012E0ED1E279A3792C
:105D500012021A431F49112A13D8D2B2002A10D0B6
:105D60002800FFF737FF0120E1E7032EDFD1A378FA
:105D7000002B08D1E279A37912021A431649032AAB
:105D8000EBD90A78ECE7022B08D1E279A379120269
:105D900012491A432800FFF747FFC8E7012B05D136
:105DA000E279A37912021A430D49F3E7032BBED11E
:105DB0004122010001A803F0CCFB00F065FB01A922
:105DC00000F015FBE279A37912021A4301A9E1E779
:105DD000300D002090C400007AC400006CC40000A4
:105DE0007EC40000CBB204495B01C9188B699B0BD0
:105DF0009B038B617047C046E811002037B5050052
:105E000048780C000B2810D801F032F8061B0F2B35
:105E10000F404561494C5A5D097801AA002906D115
:105E2000022311802800FFF7B1FE01203EBD0023B0
:105E30001380284B1B78012B00D113700223002103
:105E4000F0E78A780023012A03D101AA1380224BAC
:105E5000F0E7204A1370214A93699B0B9B039361DF
:105E6000E3E78C78012C06D100211B4B01AA1C70A2
:105E700011702300D6E70120002CD7D1154B174A0B
:105E8000187093699B0B9B039361CFE78978280077
:105E9000FFF730FCC9E72800FFF738FFC6E701230A
:105EA0000F4ACCE70B780020DB06BFD12800FFF7B4
:105EB000DDFCA2780A4B0B481A60FFF791FACAE79B
:105EC0000123094ABBE78A78074B1A60C3E7002021
:105ED000ACE7C046500D0020580D0020E81100200E
:105EE000E0110020CC0C0020E41100203A4BF7B563
:105EF0001E780500002E5FD1384C23689A8B12075C
:105F00000DD5082231009A833000FFF793FA102252
:105F10002368FF33997A0A439A72314B1E602368D3
:105F20009A8B520701D504229A83FF331A7A92067C
:105F300003D52022597A0A435A721A7AD20623D5F7
:105F400069460800274AC0CAC0C0A268920B9203E3
:105F5000A2604022587902435A7160230A782800CF
:105F60001A422AD1FFF74AFF2368FF33002827D0BF
:105F70008022997952420A439A711A7A520603D5BD
:105F80004022597A0A435A727F2601252368FF333B
:105F90001E722F00236808377F01DB19DB79002B85
:105FA00007D0114BAA00D05800280DD003681B68F9
:105FB00098470135082DECD1F7BDFFF7BFFBD3E7BC
:105FC00020210A4A9171D8E729000948FFF7D8F93A
:105FD0002368DF19FE71ECE7DD110020E8110020D5
:105FE000E01100201C0F0020340D0020FF50004164
:105FF000CC0C002010B50248FFF778FF10BDC0465A
:10600000300D002080235B000380002343600733B2
:106010000372704783000148C0187047080D0020C4
:10602000836C402B09D03F22036CC154036C0133B5
:1060300013400364836C013383647047F7B5050034
:106040006846FFF759FA00264022019B013B02D324
:106050002E6D961BFAE768460193FFF754FAAB6D75
:106060006846002B4FD1FFF747FA2900019BA83162
:10607000013B5A1C0CD00C785A1EE4B2002C05D1FE
:1060800068460193FFF73FFA2000FEBD1300F0E7DA
:10609000684601930024FFF736FA2A002900A0324F
:1060A0001368A431B4420ED0086898420BD9280076
:1060B000591CEB181160603319780830C9B2FFF72A
:1060C000AFFF0134E9E709689942DDD1002313608D
:1060D0000133AB656846FFF70FFA2F002A00002155
:1060E000019BA837013BF532581CC9D03970107894
:1060F0005E1E002805D0117028000193FFF742FAB8
:10610000EBE73300F0E7FFF7F7F92900019BF431E3
:10611000013B5A1C06D00C785A1EE4B2002CAFD0BA
:106120001300F6E7684601930024FFF7ECF92A0014
:106130002900EC321368F031B44202D0086898426A
:106140001DD8096899429FD1002368461360AB654A
:10615000FFF7D2F92F002A000021019BF437013B01
:10616000F532581C00D18BE7397010785E1E00287C
:1061700011D0117028000193FFF704FAEAE7280014
:10618000591CEB181160AC3319780830C9B2FFF70D
:1061900047FF0134CBE73300E3E710B50400FFF716
:1061A0004DFF206D10BD10B50400FFF747FF236DB4
:1061B000002B03D0E36CE418207A10BD012040428C
:1061C000FBE7F7B517000E000400FFF737FF68463E
:1061D000FFF792F93F2200259446019B013B5A1C90
:1061E00019D0BD4215D2226D002A12D00121226D94
:1061F0004942002A0AD06046E26CA218117AE26C89
:1062000001320240E264226D013A22657155013586
:10621000E7E7013BE3E768460193FFF774F92800DD
:10622000FEBD0000014B024A1A607047E8110020D1
:10623000005000412023F7B5474A0500D1690F20DF
:106240000B43D361012245490B7813430B70444B38
:1062500019788143197006211C782143197041492E
:106260000C7822430A701A7802401A70602219785A
:106270000A431A703C4B3D4A5A805F78FF09FCD1B3
:106280003B4800F0C9FA01233A4C3B4E22683000EB
:1062900011780B43137080223900520003F059F932
:1062A00022689378DB07FCD456621F26334B1B68A9
:1062B000590B980C9B01314030405B0FB14200D12B
:1062C00005211F2800D10238072B00D1043B3140A3
:1062D0008901178D01912A4930400F4001993943B6
:1062E0001185118D0700B143080038431085118DC9
:1062F0001803244B7F260B4003430C2013850823EF
:10630000D17881430B430321D3702268D3788B4328
:1063100001390B43D3702268137833401370042380
:1063200022681678334313702268C1241389A400AD
:1063300083431548138103591B021B0A0351802311
:106340000360137811481943012311702B70002149
:10635000FEF7B0FEF7BDC0460004004058440041BF
:106360003C44004159440041000C004006400000FC
:10637000F55F0000E8110020EC110020246080008F
:106380003FF8FFFFFF8FFFFF00E100E0CC0C002093
:1063900010B51C00431A0298511A001B584300F014
:1063A000FBFD001910BD70B50E0000254468002CDF
:1063B0000BD0236831005B6820009847002802DB7F
:1063C0002D18E468F3E701256D42280070BD70B513
:1063D0000D004468002C08D0236829009B68200029
:1063E0009847002802D1E468F4E7200070BD70B53A
:1063F0000D004468002C07D0236829002000DB68CA
:106400009847E4682D18F5E72C7070BD70B50D0045
:106410004468002C08D0236829001B682000984796
:10642000002802D1E468F4E7200070BDF8B5427896
:106430008B790D00017A9B18040000208B4222DC2E
:106440006368834219D16560002623786A71EA790E
:106450002B719B182370AB79B34213D9AB68B7008B
